{
    "contractName": "WyvernExchange",
    "abi": [
        {
            "inputs": [
                {
                    "internalType": "uint256",
                    "name": "chainId",
                    "type": "uint256"
                },
                {
                    "internalType": "address[]",
                    "name": "registryAddrs",
                    "type": "address[]"
                },
                {
                    "internalType": "bytes",
                    "name": "customPersonalSignPrefix",
                    "type": "bytes"
                }
            ],
            "stateMutability": "nonpayable",
            "type": "constructor"
        },
        {
            "anonymous": false,
            "inputs": [
                {
                    "indexed": true,
                    "internalType": "bytes32",
                    "name": "hash",
                    "type": "bytes32"
                },
                {
                    "indexed": false,
                    "internalType": "address",
                    "name": "registry",
                    "type": "address"
                },
                {
                    "indexed": true,
                    "internalType": "address",
                    "name": "maker",
                    "type": "address"
                },
                {
                    "indexed": false,
                    "internalType": "address",
                    "name": "staticTarget",
                    "type": "address"
                },
                {
                    "indexed": false,
                    "internalType": "bytes4",
                    "name": "staticSelector",
                    "type": "bytes4"
                },
                {
                    "indexed": false,
                    "internalType": "bytes",
                    "name": "staticExtradata",
                    "type": "bytes"
                },
                {
                    "indexed": false,
                    "internalType": "uint256",
                    "name": "maximumFill",
                    "type": "uint256"
                },
                {
                    "indexed": false,
                    "internalType": "uint256",
                    "name": "listingTime",
                    "type": "uint256"
                },
                {
                    "indexed": false,
                    "internalType": "uint256",
                    "name": "expirationTime",
                    "type": "uint256"
                },
                {
                    "indexed": false,
                    "internalType": "uint256",
                    "name": "salt",
                    "type": "uint256"
                },
                {
                    "indexed": false,
                    "internalType": "bool",
                    "name": "orderbookInclusionDesired",
                    "type": "bool"
                }
            ],
            "name": "OrderApproved",
            "type": "event"
        },
        {
            "anonymous": false,
            "inputs": [
                {
                    "indexed": true,
                    "internalType": "bytes32",
                    "name": "hash",
                    "type": "bytes32"
                },
                {
                    "indexed": true,
                    "internalType": "address",
                    "name": "maker",
                    "type": "address"
                },
                {
                    "indexed": false,
                    "internalType": "uint256",
                    "name": "newFill",
                    "type": "uint256"
                }
            ],
            "name": "OrderFillChanged",
            "type": "event"
        },
        {
            "anonymous": false,
            "inputs": [
                {
                    "indexed": false,
                    "internalType": "bytes32",
                    "name": "firstHash",
                    "type": "bytes32"
                },
                {
                    "indexed": false,
                    "internalType": "bytes32",
                    "name": "secondHash",
                    "type": "bytes32"
                },
                {
                    "indexed": true,
                    "internalType": "address",
                    "name": "firstMaker",
                    "type": "address"
                },
                {
                    "indexed": true,
                    "internalType": "address",
                    "name": "secondMaker",
                    "type": "address"
                },
                {
                    "indexed": false,
                    "internalType": "uint256",
                    "name": "newFirstFill",
                    "type": "uint256"
                },
                {
                    "indexed": false,
                    "internalType": "uint256",
                    "name": "newSecondFill",
                    "type": "uint256"
                },
                {
                    "indexed": true,
                    "internalType": "bytes32",
                    "name": "metadata",
                    "type": "bytes32"
                }
            ],
            "name": "OrdersMatched",
            "type": "event"
        },
        {
            "inputs": [
                {
                    "internalType": "bytes32",
                    "name": "hash",
                    "type": "bytes32"
                }
            ],
            "name": "approveOrderHash_",
            "outputs": [],
            "stateMutability": "nonpayable",
            "type": "function"
        },
        {
            "inputs": [
                {
                    "internalType": "address",
                    "name": "registry",
                    "type": "address"
                },
                {
                    "internalType": "address",
                    "name": "maker",
                    "type": "address"
                },
                {
                    "internalType": "address",
                    "name": "staticTarget",
                    "type": "address"
                },
                {
                    "internalType": "bytes4",
                    "name": "staticSelector",
                    "type": "bytes4"
                },
                {
                    "internalType": "bytes",
                    "name": "staticExtradata",
                    "type": "bytes"
                },
                {
                    "internalType": "uint256",
                    "name": "maximumFill",
                    "type": "uint256"
                },
                {
                    "internalType": "uint256",
                    "name": "listingTime",
                    "type": "uint256"
                },
                {
                    "internalType": "uint256",
                    "name": "expirationTime",
                    "type": "uint256"
                },
                {
                    "internalType": "uint256",
                    "name": "salt",
                    "type": "uint256"
                },
                {
                    "internalType": "bool",
                    "name": "orderbookInclusionDesired",
                    "type": "bool"
                }
            ],
            "name": "approveOrder_",
            "outputs": [],
            "stateMutability": "nonpayable",
            "type": "function"
        },
        {
            "inputs": [
                {
                    "internalType": "address",
                    "name": "",
                    "type": "address"
                },
                {
                    "internalType": "bytes32",
                    "name": "",
                    "type": "bytes32"
                }
            ],
            "name": "approved",
            "outputs": [
                {
                    "internalType": "bool",
                    "name": "",
                    "type": "bool"
                }
            ],
            "stateMutability": "view",
            "type": "function"
        },
        {
            "inputs": [
                {
                    "internalType": "uint256[16]",
                    "name": "uints",
                    "type": "uint256[16]"
                },
                {
                    "internalType": "bytes4[2]",
                    "name": "staticSelectors",
                    "type": "bytes4[2]"
                },
                {
                    "internalType": "bytes",
                    "name": "firstExtradata",
                    "type": "bytes"
                },
                {
                    "internalType": "bytes",
                    "name": "firstCalldata",
                    "type": "bytes"
                },
                {
                    "internalType": "bytes",
                    "name": "secondExtradata",
                    "type": "bytes"
                },
                {
                    "internalType": "bytes",
                    "name": "secondCalldata",
                    "type": "bytes"
                },
                {
                    "internalType": "uint8[2]",
                    "name": "howToCalls",
                    "type": "uint8[2]"
                },
                {
                    "internalType": "bytes32",
                    "name": "metadata",
                    "type": "bytes32"
                },
                {
                    "internalType": "bytes",
                    "name": "signatures",
                    "type": "bytes"
                }
            ],
            "name": "atomicMatch_",
            "outputs": [],
            "stateMutability": "payable",
            "type": "function"
        },
        {
            "inputs": [],
            "name": "codename",
            "outputs": [
                {
                    "internalType": "string",
                    "name": "",
                    "type": "string"
                }
            ],
            "stateMutability": "view",
            "type": "function"
        },
        {
            "inputs": [
                {
                    "internalType": "address",
                    "name": "",
                    "type": "address"
                },
                {
                    "internalType": "bytes32",
                    "name": "",
                    "type": "bytes32"
                }
            ],
            "name": "fills",
            "outputs": [
                {
                    "internalType": "uint256",
                    "name": "",
                    "type": "uint256"
                }
            ],
            "stateMutability": "view",
            "type": "function"
        },
        {
            "inputs": [
                {
                    "internalType": "address",
                    "name": "registry",
                    "type": "address"
                },
                {
                    "internalType": "address",
                    "name": "maker",
                    "type": "address"
                },
                {
                    "internalType": "address",
                    "name": "staticTarget",
                    "type": "address"
                },
                {
                    "internalType": "bytes4",
                    "name": "staticSelector",
                    "type": "bytes4"
                },
                {
                    "internalType": "bytes",
                    "name": "staticExtradata",
                    "type": "bytes"
                },
                {
                    "internalType": "uint256",
                    "name": "maximumFill",
                    "type": "uint256"
                },
                {
                    "internalType": "uint256",
                    "name": "listingTime",
                    "type": "uint256"
                },
                {
                    "internalType": "uint256",
                    "name": "expirationTime",
                    "type": "uint256"
                },
                {
                    "internalType": "uint256",
                    "name": "salt",
                    "type": "uint256"
                }
            ],
            "name": "hashOrder_",
            "outputs": [
                {
                    "internalType": "bytes32",
                    "name": "hash",
                    "type": "bytes32"
                }
            ],
            "stateMutability": "pure",
            "type": "function"
        },
        {
            "inputs": [
                {
                    "internalType": "bytes32",
                    "name": "orderHash",
                    "type": "bytes32"
                }
            ],
            "name": "hashToSign_",
            "outputs": [
                {
                    "internalType": "bytes32",
                    "name": "hash",
                    "type": "bytes32"
                }
            ],
            "stateMutability": "view",
            "type": "function"
        },
        {
            "inputs": [],
            "name": "name",
            "outputs": [
                {
                    "internalType": "string",
                    "name": "",
                    "type": "string"
                }
            ],
            "stateMutability": "view",
            "type": "function"
        },
        {
            "inputs": [
                {
                    "internalType": "address",
                    "name": "",
                    "type": "address"
                }
            ],
            "name": "registries",
            "outputs": [
                {
                    "internalType": "bool",
                    "name": "",
                    "type": "bool"
                }
            ],
            "stateMutability": "view",
            "type": "function"
        },
        {
            "inputs": [
                {
                    "internalType": "bytes32",
                    "name": "hash",
                    "type": "bytes32"
                },
                {
                    "internalType": "uint256",
                    "name": "fill",
                    "type": "uint256"
                }
            ],
            "name": "setOrderFill_",
            "outputs": [],
            "stateMutability": "nonpayable",
            "type": "function"
        },
        {
            "inputs": [
                {
                    "internalType": "bytes32",
                    "name": "hash",
                    "type": "bytes32"
                },
                {
                    "internalType": "address",
                    "name": "maker",
                    "type": "address"
                },
                {
                    "internalType": "bytes",
                    "name": "signature",
                    "type": "bytes"
                }
            ],
            "name": "validateOrderAuthorization_",
            "outputs": [
                {
                    "internalType": "bool",
                    "name": "",
                    "type": "bool"
                }
            ],
            "stateMutability": "view",
            "type": "function"
        },
        {
            "inputs": [
                {
                    "internalType": "address",
                    "name": "registry",
                    "type": "address"
                },
                {
                    "internalType": "address",
                    "name": "maker",
                    "type": "address"
                },
                {
                    "internalType": "address",
                    "name": "staticTarget",
                    "type": "address"
                },
                {
                    "internalType": "bytes4",
                    "name": "staticSelector",
                    "type": "bytes4"
                },
                {
                    "internalType": "bytes",
                    "name": "staticExtradata",
                    "type": "bytes"
                },
                {
                    "internalType": "uint256",
                    "name": "maximumFill",
                    "type": "uint256"
                },
                {
                    "internalType": "uint256",
                    "name": "listingTime",
                    "type": "uint256"
                },
                {
                    "internalType": "uint256",
                    "name": "expirationTime",
                    "type": "uint256"
                },
                {
                    "internalType": "uint256",
                    "name": "salt",
                    "type": "uint256"
                }
            ],
            "name": "validateOrderParameters_",
            "outputs": [
                {
                    "internalType": "bool",
                    "name": "",
                    "type": "bool"
                }
            ],
            "stateMutability": "view",
            "type": "function"
        },
        {
            "inputs": [],
            "name": "version",
            "outputs": [
                {
                    "internalType": "string",
                    "name": "",
                    "type": "string"
                }
            ],
            "stateMutability": "view",
            "type": "function"
        }
    ],
    "bytecode": "6000805460ff1916905560c0604052601a60808190527f19457468657265756d205369676e6564204d6573736167653a0a00000000000060a09081526200004a916002919062000336565b503480156200005857600080fd5b5060405162002a3b38038062002a3b833981810160405260608110156200007e57600080fd5b815160208301805160405192949293830192919084640100000000821115620000a657600080fd5b908301906020820185811115620000bc57600080fd5b8251866020820283011164010000000082111715620000da57600080fd5b82525081516020918201928201910280838360005b8381101562000109578181015183820152602001620000ef565b50505050905001604052602001805160405193929190846401000000008211156200013357600080fd5b9083019060208201858111156200014957600080fd5b82516401000000008111828201881017156200016457600080fd5b82525081516020918201929091019080838360005b838110156200019357818101518382015260200162000179565b50505050905090810190601f168015620001c15780820380516001836020036101000a031916815260200191505b5060c081016040908152600f608083019081526e57797665726e2045786368616e676560881b60a08401528252805180820182526003815262332e3160e81b6020828101919091528301528101879052306060820152620002269350915050620002ad565b60015560005b825181101562000284576001600360008584815181106200024957fe5b6020908102919091018101516001600160a01b03168252810191909152604001600020805460ff19169115159190911790556001016200022c565b50805115620002a4578051620002a290600290602084019062000336565b505b505050620003e2565b805180516020918201208183015180519083012060408085015160608087015183517f8b73c3c69bb8fe3d512ecc4cf759cc79239f7b179b0ffacaa9a75d522b39400f81890152808501969096529085019390935260808401526001600160a01b0390911660a0808401919091528151808403909101815260c090920190528051910120919050565b828054600181600116156101000203166002900490600052602060002090601f0160209004810192826200036e5760008555620003b9565b82601f106200038957805160ff1916838001178555620003b9565b82800160010185558215620003b9579182015b82811115620003b95782518255916020019190600101906200039c565b50620003c7929150620003cb565b5090565b5b80821115620003c75760008155600101620003cc565b61264980620003f26000396000f3fe6080604052600436106100dd5760003560e01c80639a5168db1161007f578063f861975b11610059578063f861975b14610713578063f9b0bc20146107d3578063fac7fc3814610893578063ffc2ab14146108cc576100dd565b80639a5168db1461035e578063caed80df146106a4578063d57ad588146106d7576100dd565b806314127f13116100bb57806314127f131461023c57806331e631991461026c57806354fd4d5014610281578063995e819514610296576100dd565b806306fdde03146100e25780630812226e1461016c57806313b219e214610198575b600080fd5b3480156100ee57600080fd5b506100f7610905565b6040805160208082528351818301528351919283929083019185019080838360005b83811015610131578181015183820152602001610119565b50505050905090810190601f16801561015e5780820380516001836020036101000a031916815260200191505b509250505060405180910390f35b34801561017857600080fd5b506101966004803603602081101561018f57600080fd5b5035610930565b005b3480156101a457600080fd5b50610228600480360360608110156101bb57600080fd5b8135916001600160a01b0360208201351691810190606081016040820135600160201b8111156101ea57600080fd5b8201836020820111156101fc57600080fd5b803590602001918460018302840111600160201b8311171561021d57600080fd5b50909250905061093c565b604080519115158252519081900360200190f35b34801561024857600080fd5b506101966004803603604081101561025f57600080fd5b5080359060200135610988565b34801561027857600080fd5b506100f7610996565b34801561028d57600080fd5b506100f76109bb565b3480156102a257600080fd5b5061019660048036036101408110156102ba57600080fd5b6001600160a01b03823581169260208101358216926040820135909216916001600160e01b0319606083013516919081019060a081016080820135600160201b81111561030657600080fd5b82018360208201111561031857600080fd5b803590602001918460018302840111600160201b8311171561033957600080fd5b91935091508035906020810135906040810135906060810135906080013515156109da565b610196600480360361034081101561037557600080fd5b810190808061020001906010806020026040519081016040528092919082601060200280828437600092019190915250506040805180820182529295949381810193925090600290839083908082843760009201919091525091949392602081019250359050600160201b8111156103ec57600080fd5b8201836020820111156103fe57600080fd5b803590602001918460018302840111600160201b8311171561041f57600080fd5b91908080601f0160208091040260200160405190810160405280939291908181526020018383808284376000920191909152509295949360208101935035915050600160201b81111561047157600080fd5b82018360208201111561048357600080fd5b803590602001918460018302840111600160201b831117156104a457600080fd5b91908080601f0160208091040260200160405190810160405280939291908181526020018383808284376000920191909152509295949360208101935035915050600160201b8111156104f657600080fd5b82018360208201111561050857600080fd5b803590602001918460018302840111600160201b8311171561052957600080fd5b91908080601f0160208091040260200160405190810160405280939291908181526020018383808284376000920191909152509295949360208101935035915050600160201b81111561057b57600080fd5b82018360208201111561058d57600080fd5b803590602001918460018302840111600160201b831117156105ae57600080fd5b91908080601f0160208091040260200160405190810160405280939291908181526020018383808284376000920191909152505060408051808201825293969594818101949350915060029083908390808284376000920191909152509194833594909390925060408101915060200135600160201b81111561063057600080fd5b82018360208201111561064257600080fd5b803590602001918460018302840111600160201b8311171561066357600080fd5b91908080601f016020809104026020016040519081016040528093929190818152602001838380828437600092019190915250929550610a8d945050505050565b3480156106b057600080fd5b50610228600480360360208110156106c757600080fd5b50356001600160a01b0316610d10565b3480156106e357600080fd5b50610701600480360360208110156106fa57600080fd5b5035610d25565b60408051918252519081900360200190f35b34801561071f57600080fd5b50610701600480360361012081101561073757600080fd5b6001600160a01b03823581169260208101358216926040820135909216916001600160e01b0319606083013516919081019060a081016080820135600160201b81111561078357600080fd5b82018360208201111561079557600080fd5b803590602001918460018302840111600160201b831117156107b657600080fd5b919350915080359060208101359060408101359060600135610d36565b3480156107df57600080fd5b5061022860048036036101208110156107f757600080fd5b6001600160a01b03823581169260208101358216926040820135909216916001600160e01b0319606083013516919081019060a081016080820135600160201b81111561084357600080fd5b82018360208201111561085557600080fd5b803590602001918460018302840111600160201b8311171561087657600080fd5b919350915080359060208101359060408101359060600135610dec565b34801561089f57600080fd5b50610228600480360360408110156108b657600080fd5b506001600160a01b038135169060200135610eb7565b3480156108d857600080fd5b50610701600480360360408110156108ef57600080fd5b506001600160a01b038135169060200135610ed7565b6040518060400160405280600f81526020016e57797665726e2045786368616e676560881b81525081565b61093981610ef4565b50565b600061097f858585858080601f016020809104026020016040519081016040528093929190818152602001838380828437600092019190915250610f8a92505050565b95945050505050565b610992828261134a565b5050565b6040518060400160405280600981526020016820b731b0b630b3b7b760b91b81525081565b60405180604001604052806003815260200162332e3160e81b81525081565b610a806040518061012001604052808d6001600160a01b031681526020018c6001600160a01b031681526020018b6001600160a01b031681526020018a6001600160e01b031916815260200189898080601f016020809104026020016040519081016040528093929190818152602001838380828437600092019190915250505090825250602081018890526040810187905260608101869052608001849052826113f7565b5050505050505050505050565b610d056040518061012001604052808b600060108110610aa957fe5b60200201516001600160a01b031681526020018b600160108110610ac957fe5b60200201516001600160a01b031681526020018b600260108110610ae957fe5b60200201516001600160a01b031681526020018a600060028110610b0957fe5b60200201516001600160e01b03191681526020018981526020018b600360108110610b3057fe5b602002015181526020018b600460108110610b4757fe5b602002015181526020018b600560108110610b5e57fe5b602002015181526020018b600660108110610b7557fe5b602002015190526040805160608101909152808c600760200201516001600160a01b0316815260200186600060028110610bab57fe5b602002015160ff166001811115610bbe57fe5b6001811115610bc957fe5b815260209081018a90526040805161012081019091526101008e01516001600160a01b031681529081018d600960200201516001600160a01b031681526020018d600a60108110610c1657fe5b60200201516001600160a01b031681526020018c600160028110610c3657fe5b60200201516001600160e01b03191681526020018981526020018d600b60108110610c5d57fe5b602002015181526020018d600c60108110610c7457fe5b602002015181526020018d600d60108110610c8b57fe5b602002015181526020018d600e60108110610ca257fe5b602002015190526040805160608101909152808e600f60200201516001600160a01b0316815260200188600160028110610cd857fe5b602002015160ff166001811115610ceb57fe5b6001811115610cf657fe5b81526020018990528587611584565b505050505050505050565b60036020526000908152604090205460ff1681565b6000610d3082611b48565b92915050565b6000610ddd6040518061012001604052808d6001600160a01b031681526020018c6001600160a01b031681526020018b6001600160a01b031681526020018a6001600160e01b031916815260200189898080601f016020809104026020016040519081016040528093929190818152602001838380828437600092019190915250505090825250602081018890526040810187905260608101869052608001849052611b86565b9b9a5050505050505050505050565b6000610df661241c565b6040518061012001604052808d6001600160a01b031681526020018c6001600160a01b031681526020018b6001600160a01b031681526020018a6001600160e01b031916815260200189898080601f0160208091040260200160405190810160405280939291908181526020018383808284376000920191909152505050908252506020810188905260408101879052606081018690526080018490529050610ea781610ea281611b86565b611c6f565b9c9b505050505050505050505050565b600560209081526000928352604080842090915290825290205460ff1681565b600460209081526000928352604080842090915290825290205481565b33600090815260056020908152604080832084845290915290205460ff1615610f64576040805162461bcd60e51b815260206004820152601f60248201527f4f726465722068617320616c7265616479206265656e20617070726f76656400604482015290519081900360640190fd5b33600090815260056020908152604080832093835292905220805460ff19166001179055565b6001600160a01b038216600090815260046020908152604080832086845290915281205415610fbb57506001611343565b6001600160a01b038316331415610fd457506001611343565b6001600160a01b038316600090815260056020908152604080832087845290915290205460ff161561100857506001611343565b600061101385611b48565b9050600061102085611cfb565b9050801561112f5760408051630b135d3f60e11b808252600482018581526024830193845287516044840152875191936001600160a01b038a1693631626ba7e9388938b9390929091606490910190602085019080838360005b8381101561109257818101518382015260200161107a565b50505050905090810190601f1680156110bf5780820380516001836020036101000a031916815260200191505b50935050505060206040518083038186803b1580156110dd57600080fd5b505afa1580156110f1573d6000803e3d6000fd5b505050506040513d602081101561110757600080fd5b50516001600160e01b031916141561112457600192505050611343565b600092505050611343565b600080600086806020019051606081101561114957600080fd5b50805160208201516040909201518951919550919350909150604110801561119357508660018851038151811061117c57fe5b6020910101516001600160f81b031916600360f81b145b156112ae57876001600160a01b0316600160028760405160200180838054600181600116156101000203166002900480156112055780601f106111e3576101008083540402835291820191611205565b820191906000526020600020905b8154815290600101906020018083116111f1575b505061199960f11b81526002808201939093526040805180830390940184526022820180825284516020958601206000909152604283018083525260ff8a1660628301526082820189905260a282018890525160c28083019550601f19820193509181900390910190855afa158015611282573d6000803e3d6000fd5b505050602060405103516001600160a01b031614156112a957600195505050505050611343565b611339565b876001600160a01b031660018685858560405160008152602001604052604051808581526020018460ff1681526020018381526020018281526020019450505050506020604051602081039080840390855afa158015611312573d6000803e3d6000fd5b505050602060405103516001600160a01b0316141561133957600195505050505050611343565b6000955050505050505b9392505050565b3360009081526004602090815260408083208584529091529020548114156113a35760405162461bcd60e51b815260040180806020018281038252602881526020018061253d6028913960400191505060405180910390fd5b3360008181526004602090815260408083208684528252918290208490558151848152915185927f826cd05b52546b47590739469989cacd5336e0a9e6f9392de2dee5cfb19c8aab92908290030190a35050565b60208201516001600160a01b031633146114425760405162461bcd60e51b815260040180806020018281038252604a8152602001806124c2604a913960600191505060405180910390fd5b600061144d83611b86565b905061145881610ef4565b82602001516001600160a01b0316817fbace5d282ba59cba3de1ac539b0ed46ae5a3d8ad434a3ac9f07ce45d1661481885600001518660400151876060015188608001518960a001518a60c001518b60e001518c61010001518c604051808a6001600160a01b03168152602001896001600160a01b03168152602001886001600160e01b0319168152602001806020018781526020018681526020018581526020018481526020018315158152602001828103825288818151815260200191508051906020019080838360005b8381101561153d578181015183820152602001611525565b50505050905090810190601f16801561156a5780820380516001836020036101000a031916815260200191505b509a505050505050505050505060405180910390a3505050565b60005460ff16156115d2576040805162461bcd60e51b81526020600482015260136024820152721499595b9d1c985b98de4819195d1958dd1959606a1b604482015290519081900360640190fd5b6000805460ff191660011781556115e887611b86565b90506115f48782611c6f565b61162f5760405162461bcd60e51b81526004018080602001828103825260228152602001806125ae6022913960400191505060405180910390fd5b600061163a86611b86565b90506116468682611c6f565b6116815760405162461bcd60e51b81526004018080602001828103825260238152602001806125f16023913960400191505060405180910390fd5b808214156116c05760405162461bcd60e51b81526004018080602001828103825260228152602001806125656022913960400191505060405180910390fd5b6060808580602001905160408110156116d857600080fd5b8101908080516040519392919084600160201b8211156116f757600080fd5b90830190602082018581111561170c57600080fd5b8251600160201b81118282018810171561172557600080fd5b82525081516020918201929091019080838360005b8381101561175257818101518382015260200161173a565b50505050905090810190601f16801561177f5780820380516001836020036101000a031916815260200191505b5060405260200180516040519392919084600160201b8211156117a157600080fd5b9083019060208201858111156117b657600080fd5b8251600160201b8111828201881017156117cf57600080fd5b82525081516020918201929091019080838360005b838110156117fc5781810151838201526020016117e4565b50505050905090810190601f1680156118295780820380516001836020036101000a031916815260200191505b5060405250505091509150611843848b6020015184610f8a565b611894576040805162461bcd60e51b815260206004820181905260248201527f4669727374206f72646572206661696c656420617574686f72697a6174696f6e604482015290519081900360640190fd5b6118a383896020015183610f8a565b6118de5760405162461bcd60e51b81526004018080602001828103825260218152602001806125d06021913960400191505060405180910390fd5b505034156119235760208801516040516001600160a01b03909116903480156108fc02916000818181858888f19350505050158015611921573d6000803e3d6000fd5b505b6119368860000151896020015189611d01565b61197b576040805162461bcd60e51b8152602060048201526011602482015270119a5c9cdd0818d85b1b0819985a5b1959607a1b604482015290519081900360640190fd5b61198e8660000151876020015187611d01565b6119d4576040805162461bcd60e51b815260206004820152601260248201527114d958dbdb990818d85b1b0819985a5b195960721b604482015290519081900360640190fd5b6020808901516001600160a01b039081166000908152600480845260408083208784528552808320548b8601519094168352908452808220858352909352918220549091611a278b8b8b8b333489612075565b90506000611a3b8a8a8e8e33600089612075565b60208d01519091506001600160a01b03163314611a8157838214611a81576020808d01516001600160a01b03166000908152600482526040808220898352909252208290555b60208a01516001600160a01b03163314611ac457828114611ac4576020808b01516001600160a01b03166000908152600482526040808220888352909252208190555b868a602001516001600160a01b03168d602001516001600160a01b03167fe8447df45ce371d4c2f6cfcb9342b06165f71b244e809b909977f0dab191a009898987876040518085815260200184815260200183815260200182815260200194505050505060405180910390a450506000805460ff1916905550505050505050505050565b6001546040805161190160f01b6020808301919091526022820193909352604280820194909452815180820390940184526062019052815191012090565b60007feb61b8100bcd004cad335a779aa74e9b176b520f4b98e7b487c133a82e9853dd82600001518360200151846040015185606001518660800151805190602001208760a001518860c001518960e001518a6101000151604051602001808b81526020018a6001600160a01b03168152602001896001600160a01b03168152602001886001600160a01b03168152602001876001600160e01b03191681526020018681526020018581526020018481526020018381526020018281526020019a5050505050505050505050604051602081830303815290604052805190602001209050919050565b6000428360c001511180611c95575060e083015115801590611c955750428360e0015111155b15611ca257506000610d30565b60a08301516020808501516001600160a01b03166000908152600482526040808220868352909252205410611cd957506000610d30565b611ce68360400151611cfb565b611cf257506000610d30565b50600192915050565b3b151590565b6001600160a01b03831660009081526003602052604081205460ff16611d2657600080fd5b8151611d3190611cfb565b611d82576040805162461bcd60e51b815260206004820152601a60248201527f43616c6c2074617267657420646f6573206e6f74206578697374000000000000604482015290519081900360640190fd5b6000846001600160a01b031663c4552791856040518263ffffffff1660e01b815260040180826001600160a01b03168152602001915050602060405180830381600087803b158015611dd357600080fd5b505af1158015611de7573d6000803e3d6000fd5b505050506040513d6020811015611dfd57600080fd5b505190506001600160a01b038116611e465760405162461bcd60e51b81526004018080602001828103825260278152602001806125876027913960400191505060405180910390fd5b846001600160a01b03166397204d8e6040518163ffffffff1660e01b8152600401602060405180830381600087803b158015611e8157600080fd5b505af1158015611e95573d6000803e3d6000fd5b505050506040513d6020811015611eab57600080fd5b505160408051635c60da1b60e01b815290516001600160a01b0392831692841691635c60da1b916004808301926020929190829003018186803b158015611ef157600080fd5b505afa158015611f05573d6000803e3d6000fd5b505050506040513d6020811015611f1b57600080fd5b50516001600160a01b031614611f625760405162461bcd60e51b815260040180806020018281038252603181526020018061250c6031913960400191505060405180910390fd5b6000819050806001600160a01b0316631b0f7ba98560000151866020015187604001516040518463ffffffff1660e01b815260040180846001600160a01b03168152602001836001811115611fb357fe5b815260200180602001828103825283818151815260200191508051906020019080838360005b83811015611ff1578181015183820152602001611fd9565b50505050905090810190601f16801561201e5780820380516001836020036101000a031916815260200191505b50945050505050602060405180830381600087803b15801561203f57600080fd5b505af1158015612053573d6000803e3d6000fd5b505050506040513d602081101561206957600080fd5b50519695505050505050565b6000612093886040015161208e8a8a8a8a8a8a8a61209f565b6123b3565b98975050505050505050565b60606120a9612467565b506040805160e08101825289516001600160a01b0390811682526020808c01518216818401528a5182169383019390935288518116606083015291880151821660808201528651821660a082015290851660c0820152612107612485565b60405180604001604052808a60200151600181111561212257fe5b600181111561212d57fe5b81526020018860200151600181111561214257fe5b600181111561214d57fe5b905290506121596124a3565b6040518060c001604052808781526020018c60a0015181526020018c60c0015181526020018c60e0015181526020018a60c0015181526020018681525090508a606001518b608001518484848e604001518d60400151604051602401808060200187600760200280838360005b838110156121de5781810151838201526020016121c6565b5050505090500186600260200280838360005b838110156122095781810151838201526020016121f1565b5050505090500185600660200280838360005b8381101561223457818101518382015260200161221c565b50505050905001806020018060200184810384528a818151815260200191508051906020019080838360005b83811015612278578181015183820152602001612260565b50505050905090810190601f1680156122a55780820380516001836020036101000a031916815260200191505b50848103835286518152865160209182019188019080838360005b838110156122d85781810151838201526020016122c0565b50505050905090810190601f1680156123055780820380516001836020036101000a031916815260200191505b50848103825285518152855160209182019187019080838360005b83811015612338578181015183820152602001612320565b50505050905090810190601f1680156123655780820380516001836020036101000a031916815260200191505b5060408051601f198184030181529190526020810180516001600160e01b03166001600160e01b0319909d169c909c17909b5250989c50505050505050505050505050979650505050505050565b60008060206040518181865160208801895afa925080519350505080612415576040805162461bcd60e51b815260206004820152601260248201527114dd185d1a58c818d85b1b0819985a5b195960721b604482015290519081900360640190fd5b5092915050565b60408051610120810182526000808252602082018190529181018290526060808201839052608082015260a0810182905260c0810182905260e0810182905261010081019190915290565b6040518060e001604052806007906020820280368337509192915050565b60405180604001604052806002906020820280368337509192915050565b6040518060c00160405280600690602082028036833750919291505056fe53656e646572206973206e6f7420746865206d616b6572206f6620746865206f7264657220616e642074687573206e6f7420617574686f72697a656420746f20617070726f7665206974496e636f72726563742064656c65676174652070726f787920696d706c656d656e746174696f6e20666f72206d616b657246696c6c20697320616c72656164792073657420746f2074686520646573697265642076616c756553656c662d6d61746368696e67206f72646572732069732070726f6869626974656444656c65676174652070726f787920646f6573206e6f7420657869737420666f72206d616b65724669727374206f726465722068617320696e76616c696420706172616d65746572735365636f6e64206f72646572206661696c656420617574686f72697a6174696f6e5365636f6e64206f726465722068617320696e76616c696420706172616d6574657273a2646970667358221220f538da09735f69d23e96f63d7f015c75801c1956ce551d7fd78d8aca9a1b0cc064736f6c63430007050033",
    "sourcePath": "/Volumes/Developer/blockchain/wyvern-v3/contracts/WyvernExchange.sol",
    "compiler": {
        "name": "solc",
        "version": "0.7.5+commit.eb77ed08"
    },
    "functionHashes": {
        "approveOrderHash_(bytes32)": "0812226e",
        "approveOrder_(address,address,address,bytes4,bytes,uint256,uint256,uint256,uint256,bool)": "995e8195",
        "approved(address,bytes32)": "fac7fc38",
        "atomicMatch_(uint256[16],bytes4[2],bytes,bytes,bytes,bytes,uint8[2],bytes32,bytes)": "9a5168db",
        "codename()": "31e63199",
        "fills(address,bytes32)": "ffc2ab14",
        "hashOrder_(address,address,address,bytes4,bytes,uint256,uint256,uint256,uint256)": "f861975b",
        "hashToSign_(bytes32)": "d57ad588",
        "name()": "06fdde03",
        "registries(address)": "caed80df",
        "setOrderFill_(bytes32,uint256)": "14127f13",
        "validateOrderAuthorization_(bytes32,address,bytes)": "13b219e2",
        "validateOrderParameters_(address,address,address,bytes4,bytes,uint256,uint256,uint256,uint256)": "f9b0bc20",
        "version()": "54fd4d50"
    },
    "gasEstimates": {
        "creation": {
            "codeDepositCost": "1960200",
            "executionCost": "infinite",
            "totalCost": "infinite"
        },
        "external": {
            "approveOrderHash_(bytes32)": "22188",
            "approveOrder_(address,address,address,bytes4,bytes,uint256,uint256,uint256,uint256,bool)": "infinite",
            "approved(address,bytes32)": "1289",
            "atomicMatch_(uint256[16],bytes4[2],bytes,bytes,bytes,bytes,uint8[2],bytes32,bytes)": "infinite",
            "codename()": "infinite",
            "fills(address,bytes32)": "1299",
            "hashOrder_(address,address,address,bytes4,bytes,uint256,uint256,uint256,uint256)": "infinite",
            "hashToSign_(bytes32)": "1348",
            "name()": "infinite",
            "registries(address)": "1181",
            "setOrderFill_(bytes32,uint256)": "infinite",
            "validateOrderAuthorization_(bytes32,address,bytes)": "infinite",
            "validateOrderParameters_(address,address,address,bytes4,bytes,uint256,uint256,uint256,uint256)": "infinite",
            "version()": "infinite"
        }
    }
}