{
	"data": {
		"bytecode": {
			"linkReferences": {},
			"object": "6080604052348015600f57600080fd5b5060bf8061001e6000396000f3fe6080604052348015600f57600080fd5b506004361060285760003560e01c80636fde820214602d575b600080fd5b6033605f565b604051808273ffffffffffffffffffffffffffffffffffffffff16815260200191505060405180910390f35b6000600160009054906101000a900473ffffffffffffffffffffffffffffffffffffffff1690509056fea2646970667358221220b921f54812dd1a1d19903e643056a23b490651234e6c421f4781850a77bd962d64736f6c63430007050033",
			"opcodes": "PUSH1 0x80 PUSH1 0x40 MSTORE CALLVALUE DUP1 ISZERO PUSH1 0xF JUMPI PUSH1 0x0 DUP1 REVERT JUMPDEST POP PUSH1 0xBF DUP1 PUSH2 0x1E PUSH1 0x0 CODECOPY PUSH1 0x0 RETURN INVALID PUSH1 0x80 PUSH1 0x40 MSTORE CALLVALUE DUP1 ISZERO PUSH1 0xF JUMPI PUSH1 0x0 DUP1 REVERT JUMPDEST POP PUSH1 0x4 CALLDATASIZE LT PUSH1 0x28 JUMPI PUSH1 0x0 CALLDATALOAD PUSH1 0xE0 SHR DUP1 PUSH4 0x6FDE8202 EQ PUSH1 0x2D JUMPI JUMPDEST PUSH1 0x0 DUP1 REVERT JUMPDEST PUSH1 0x33 PUSH1 0x5F JUMP JUMPDEST PUSH1 0x40 MLOAD DUP1 DUP3 PUSH20 0xFFFFFFFFFFFFFFFFFFFFFFFFFFFFFFFFFFFFFFFF AND DUP2 MSTORE PUSH1 0x20 ADD SWAP2 POP POP PUSH1 0x40 MLOAD DUP1 SWAP2 SUB SWAP1 RETURN JUMPDEST PUSH1 0x0 PUSH1 0x1 PUSH1 0x0 SWAP1 SLOAD SWAP1 PUSH2 0x100 EXP SWAP1 DIV PUSH20 0xFFFFFFFFFFFFFFFFFFFFFFFFFFFFFFFFFFFFFFFF AND SWAP1 POP SWAP1 JUMP INVALID LOG2 PUSH5 0x6970667358 0x22 SLT KECCAK256 0xB9 0x21 CREATE2 0x48 SLT 0xDD BYTE SAR NOT SWAP1 RETURNDATACOPY PUSH5 0x3056A23B49 MOD MLOAD 0x23 0x4E PUSH13 0x421F4781850A77BD962D64736F PUSH13 0x63430007050033000000000000 "
		},
		"gasEstimates": {
			"creation": {
				"codeDepositCost": "38200",
				"executionCost": "87",
				"totalCost": "38287"
			},
			"external": {
				"upgradeabilityOwner()": "1033"
			},
			"internal": {
				"setUpgradeabilityOwner(address)": "infinite"
			}
		},
		"methodIdentifiers": {
			"upgradeabilityOwner()": "6fde8202"
		}
	},
	"abi": [
		{
			"inputs": [],
			"name": "upgradeabilityOwner",
			"outputs": [
				{
					"internalType": "address",
					"name": "",
					"type": "address"
				}
			],
			"stateMutability": "view",
			"type": "function"
		}
	]
}