{
    "contractName": "ProxyRegistry",
    "abi": [
        {
            "anonymous": false,
            "inputs": [
                {
                    "indexed": true,
                    "internalType": "address",
                    "name": "previousOwner",
                    "type": "address"
                },
                {
                    "indexed": true,
                    "internalType": "address",
                    "name": "newOwner",
                    "type": "address"
                }
            ],
            "name": "OwnershipTransferred",
            "type": "event"
        },
        {
            "inputs": [],
            "name": "DELAY_PERIOD",
            "outputs": [
                {
                    "internalType": "uint256",
                    "name": "",
                    "type": "uint256"
                }
            ],
            "stateMutability": "view",
            "type": "function"
        },
        {
            "inputs": [
                {
                    "internalType": "address",
                    "name": "",
                    "type": "address"
                }
            ],
            "name": "contracts",
            "outputs": [
                {
                    "internalType": "bool",
                    "name": "",
                    "type": "bool"
                }
            ],
            "stateMutability": "view",
            "type": "function"
        },
        {
            "inputs": [],
            "name": "delegateProxyImplementation",
            "outputs": [
                {
                    "internalType": "address",
                    "name": "",
                    "type": "address"
                }
            ],
            "stateMutability": "view",
            "type": "function"
        },
        {
            "inputs": [
                {
                    "internalType": "address",
                    "name": "addr",
                    "type": "address"
                }
            ],
            "name": "endGrantAuthentication",
            "outputs": [],
            "stateMutability": "nonpayable",
            "type": "function"
        },
        {
            "inputs": [],
            "name": "owner",
            "outputs": [
                {
                    "internalType": "address",
                    "name": "",
                    "type": "address"
                }
            ],
            "stateMutability": "view",
            "type": "function"
        },
        {
            "inputs": [
                {
                    "internalType": "address",
                    "name": "",
                    "type": "address"
                }
            ],
            "name": "pending",
            "outputs": [
                {
                    "internalType": "uint256",
                    "name": "",
                    "type": "uint256"
                }
            ],
            "stateMutability": "view",
            "type": "function"
        },
        {
            "inputs": [
                {
                    "internalType": "address",
                    "name": "",
                    "type": "address"
                }
            ],
            "name": "proxies",
            "outputs": [
                {
                    "internalType": "contract OwnableDelegateProxy",
                    "name": "",
                    "type": "address"
                }
            ],
            "stateMutability": "view",
            "type": "function"
        },
        {
            "inputs": [],
            "name": "registerProxy",
            "outputs": [
                {
                    "internalType": "contract OwnableDelegateProxy",
                    "name": "proxy",
                    "type": "address"
                }
            ],
            "stateMutability": "nonpayable",
            "type": "function"
        },
        {
            "inputs": [
                {
                    "internalType": "address",
                    "name": "user",
                    "type": "address"
                }
            ],
            "name": "registerProxyFor",
            "outputs": [
                {
                    "internalType": "contract OwnableDelegateProxy",
                    "name": "proxy",
                    "type": "address"
                }
            ],
            "stateMutability": "nonpayable",
            "type": "function"
        },
        {
            "inputs": [],
            "name": "registerProxyOverride",
            "outputs": [
                {
                    "internalType": "contract OwnableDelegateProxy",
                    "name": "proxy",
                    "type": "address"
                }
            ],
            "stateMutability": "nonpayable",
            "type": "function"
        },
        {
            "inputs": [],
            "name": "renounceOwnership",
            "outputs": [],
            "stateMutability": "nonpayable",
            "type": "function"
        },
        {
            "inputs": [
                {
                    "internalType": "address",
                    "name": "addr",
                    "type": "address"
                }
            ],
            "name": "revokeAuthentication",
            "outputs": [],
            "stateMutability": "nonpayable",
            "type": "function"
        },
        {
            "inputs": [
                {
                    "internalType": "address",
                    "name": "addr",
                    "type": "address"
                }
            ],
            "name": "startGrantAuthentication",
            "outputs": [],
            "stateMutability": "nonpayable",
            "type": "function"
        },
        {
            "inputs": [
                {
                    "internalType": "address",
                    "name": "from",
                    "type": "address"
                },
                {
                    "internalType": "address",
                    "name": "to",
                    "type": "address"
                }
            ],
            "name": "transferAccessTo",
            "outputs": [],
            "stateMutability": "nonpayable",
            "type": "function"
        },
        {
            "inputs": [
                {
                    "internalType": "address",
                    "name": "newOwner",
                    "type": "address"
                }
            ],
            "name": "transferOwnership",
            "outputs": [],
            "stateMutability": "nonpayable",
            "type": "function"
        }
    ],
    "bytecode": "60806040526212750060055534801561001757600080fd5b506000610022610071565b600080546001600160a01b0319166001600160a01b0383169081178255604051929350917f8be0079c531659141344cd1fd0a4f28419497f9722a3daafe3b4186f6b6457e0908290a350610075565b3390565b61172b806100846000396000f3fe60806040523480156200001157600080fd5b50600436106200010b5760003560e01c80638da5cb5b11620000a5578063dcfa9222116200006f578063dcfa9222146200029b578063ddd81f8214620002cc578063e71a02e114620002d6578063f2fde38b14620002e0576200010b565b80638da5cb5b146200023557806397204d8e146200023f578063c45527911462000249578063d4e8e0631462000272576200010b565b80635eebea2011620000e75780635eebea2014620001a9578063631d9e3f14620001e457806369dc9ff314620001ee578063715018a6146200022b576200010b565b8062686741146200011057806338b6e407146200015557806353376d1f1462000180575b600080fd5b62000139600480360360208110156200012857600080fd5b50356001600160a01b031662000309565b604080516001600160a01b039092168252519081900360200190f35b6200017e600480360360208110156200016d57600080fd5b50356001600160a01b0316620004b9565b005b6200017e600480360360208110156200019857600080fd5b50356001600160a01b0316620005f9565b620001d260048036036020811015620001c157600080fd5b50356001600160a01b031662000682565b60408051918252519081900360200190f35b6200013962000694565b62000217600480360360208110156200020657600080fd5b50356001600160a01b0316620007cd565b604080519115158252519081900360200190f35b6200017e620007e2565b6200013962000894565b62000139620008a3565b62000139600480360360208110156200026157600080fd5b50356001600160a01b0316620008b2565b6200017e600480360360208110156200028a57600080fd5b50356001600160a01b0316620008cd565b6200017e60048036036040811015620002b357600080fd5b506001600160a01b0381358116916020013516620009ce565b6200013962000ac1565b620001d262000ad3565b6200017e60048036036020811015620002f857600080fd5b50356001600160a01b031662000ad9565b6001600160a01b038181166000908152600260205260408120549091161562000379576040805162461bcd60e51b815260206004820152601860248201527f5573657220616c72656164792068617320612070726f78790000000000000000604482015290519081900360640190fd5b600154604080516001600160a01b0380861660248301523060448084019190915283518084039091018152606490920183526020820180516001600160e01b031663485cc95560e01b179052915185939290921691620003d99062000be7565b80846001600160a01b03168152602001836001600160a01b0316815260200180602001828103825283818151815260200191508051906020019080838360005b838110156200043357818101518382015260200162000419565b50505050905090810190601f168015620004615780820380516001836020036101000a031916815260200191505b50945050505050604051809103906000f08015801562000485573d6000803e3d6000fd5b506001600160a01b03928316600090815260026020526040902080546001600160a01b031916938216939093179092555090565b620004c362000be3565b6001600160a01b0316620004d662000894565b6001600160a01b03161462000521576040805162461bcd60e51b8152602060048201819052602482015260008051602062001673833981519152604482015290519081900360640190fd5b6001600160a01b03811660009081526004602052604090205460ff161580156200056257506001600160a01b03811660009081526003602052604090205415155b80156200058b57506005546001600160a01b038216600090815260036020526040902054429101105b620005c85760405162461bcd60e51b81526004018080602001828103825260468152602001806200162d6046913960600191505060405180910390fd5b6001600160a01b0316600090815260036020908152604080832083905560049091529020805460ff19166001179055565b6200060362000be3565b6001600160a01b03166200061662000894565b6001600160a01b03161462000661576040805162461bcd60e51b8152602060048201819052602482015260008051602062001673833981519152604482015290519081900360640190fd5b6001600160a01b03166000908152600460205260409020805460ff19169055565b60036020526000908152604090205481565b6001546040805133602482018190523060448084019190915283518084039091018152606490920183526020820180516001600160e01b031663485cc95560e01b17905291516000936001600160a01b03169190620006f39062000be7565b80846001600160a01b03168152602001836001600160a01b0316815260200180602001828103825283818151815260200191508051906020019080838360005b838110156200074d57818101518382015260200162000733565b50505050905090810190601f1680156200077b5780820380516001836020036101000a031916815260200191505b50945050505050604051809103906000f0801580156200079f573d6000803e3d6000fd5b5033600090815260026020526040902080546001600160a01b0319166001600160a01b038316179055919050565b60046020526000908152604090205460ff1681565b620007ec62000be3565b6001600160a01b0316620007ff62000894565b6001600160a01b0316146200084a576040805162461bcd60e51b8152602060048201819052602482015260008051602062001673833981519152604482015290519081900360640190fd5b600080546040516001600160a01b03909116907f8be0079c531659141344cd1fd0a4f28419497f9722a3daafe3b4186f6b6457e0908390a3600080546001600160a01b0319169055565b6000546001600160a01b031690565b6001546001600160a01b031681565b6002602052600090815260409020546001600160a01b031681565b620008d762000be3565b6001600160a01b0316620008ea62000894565b6001600160a01b03161462000935576040805162461bcd60e51b8152602060048201819052602482015260008051602062001673833981519152604482015290519081900360640190fd5b6001600160a01b03811660009081526004602052604090205460ff161580156200097557506001600160a01b038116600090815260036020526040902054155b620009b25760405162461bcd60e51b8152600401808060200182810382526033815260200180620016c36033913960400191505060405180910390fd5b6001600160a01b03166000908152600360205260409020429055565b6001600160a01b038083166000908152600260205260409020541633811462000a295760405162461bcd60e51b815260040180806020018281038252602e815260200180620015d9602e913960400191505060405180910390fd5b6001600160a01b03828116600090815260026020526040902054161562000a825760405162461bcd60e51b8152600401808060200182810382526030815260200180620016936030913960400191505060405180910390fd5b6001600160a01b0392831660009081526002602052604080822080546001600160a01b0319908116909155938516825290208054919093169116179055565b600062000ace3362000309565b905090565b60055481565b62000ae362000be3565b6001600160a01b031662000af662000894565b6001600160a01b03161462000b41576040805162461bcd60e51b8152602060048201819052602482015260008051602062001673833981519152604482015290519081900360640190fd5b6001600160a01b03811662000b885760405162461bcd60e51b8152600401808060200182810382526026815260200180620016076026913960400191505060405180910390fd5b600080546040516001600160a01b03808516939216917f8be0079c531659141344cd1fd0a4f28419497f9722a3daafe3b4186f6b6457e091a3600080546001600160a01b0319166001600160a01b0392909216919091179055565b3390565b6109e38062000bf68339019056fe608060405234801561001057600080fd5b506040516109e33803806109e38339818101604052606081101561003357600080fd5b8151602083015160408085018051915193959294830192918464010000000082111561005e57600080fd5b90830190602082018581111561007357600080fd5b825164010000000081118282018810171561008d57600080fd5b82525081516020918201929091019080838360005b838110156100ba5781810151838201526020016100a2565b50505050905090810190601f1680156100e75780820380516001836020036101000a031916815260200191505b506040525050506100fd836101f060201b60201c565b61010682610212565b6000826001600160a01b0316826040518082805190602001908083835b602083106101425780518252601f199092019160209182019101610123565b6001836020036101000a038019825116818451168082178552505050505050905001915050600060405180830381855af49150503d80600081146101a2576040519150601f19603f3d011682016040523d82523d6000602084013e6101a7565b606091505b50509050806101e75760405162461bcd60e51b815260040180806020018281038252602a8152602001806109b9602a913960400191505060405180910390fd5b505050506102a7565b600180546001600160a01b0319166001600160a01b0392909216919091179055565b6000546001600160a01b038281169116141561025f5760405162461bcd60e51b81526004018080602001828103825260268152602001806109936026913960400191505060405180910390fd5b600080546001600160a01b0319166001600160a01b038316908117825560405190917fbc7cd75a20ee27fd9adebab32041f755214dbc6bffa90cc0225b39da2e5c2d3b91a250565b6106dd806102b66000396000f3fe6080604052600436106100705760003560e01c80634f1ef2861161004e5780634f1ef286146101895780635c60da1b1461023f5780636fde820214610254578063f1739cae1461026957610070565b8063025313a2146100fc5780633659cfe61461012d5780634555d5c914610162575b600061007a61029c565b90506001600160a01b0381166100d7576040805162461bcd60e51b815260206004820152601d60248201527f50726f787920696d706c656d656e746174696f6e207265717569726564000000604482015290519081900360640190fd5b60405136600082376000803683855af43d806000843e8180156100f8578184f35b8184fd5b34801561010857600080fd5b506101116102ab565b604080516001600160a01b039092168252519081900360200190f35b34801561013957600080fd5b506101606004803603602081101561015057600080fd5b50356001600160a01b03166102ba565b005b34801561016e57600080fd5b5061017761031d565b60408051918252519081900360200190f35b6101606004803603604081101561019f57600080fd5b6001600160a01b0382351691908101906040810160208201356401000000008111156101ca57600080fd5b8201836020820111156101dc57600080fd5b803590602001918460018302840111640100000000831117156101fe57600080fd5b91908080601f016020809104026020016040519081016040528093929190818152602001838380828437600092019190915250929550610322945050505050565b34801561024b57600080fd5b5061011161029c565b34801561026057600080fd5b5061011161047e565b34801561027557600080fd5b506101606004803603602081101561028c57600080fd5b50356001600160a01b031661048d565b6000546001600160a01b031690565b60006102b561047e565b905090565b6102c26102ab565b6001600160a01b0316336001600160a01b0316146103115760405162461bcd60e51b815260040180806020018281038252602981526020018061067f6029913960400191505060405180910390fd5b61031a8161057d565b50565b600290565b61032a6102ab565b6001600160a01b0316336001600160a01b0316146103795760405162461bcd60e51b815260040180806020018281038252602981526020018061067f6029913960400191505060405180910390fd5b610382826102ba565b6000306001600160a01b0316826040518082805190602001908083835b602083106103be5780518252601f19909201916020918201910161039f565b6001836020036101000a038019825116818451168082178552505050505050905001915050600060405180830381855af49150503d806000811461041e576040519150601f19603f3d011682016040523d82523d6000602084013e610423565b606091505b5050905080610479576040805162461bcd60e51b815260206004820152601f60248201527f43616c6c206661696c65642061667465722070726f7879207570677261646500604482015290519081900360640190fd5b505050565b6001546001600160a01b031690565b6104956102ab565b6001600160a01b0316336001600160a01b0316146104e45760405162461bcd60e51b815260040180806020018281038252602981526020018061067f6029913960400191505060405180910390fd5b6001600160a01b0381166105295760405162461bcd60e51b815260040180806020018281038252602481526020018061065b6024913960400191505060405180910390fd5b7f5a3e66efaa1e445ebd894728a69d6959842ea1e97bd79b892797106e270efcd96105526102ab565b604080516001600160a01b03928316815291841660208301528051918290030190a161031a81610612565b6000546001600160a01b03828116911614156105ca5760405162461bcd60e51b81526004018080602001828103825260268152602001806106356026913960400191505060405180910390fd5b600080546001600160a01b0319166001600160a01b038316908117825560405190917fbc7cd75a20ee27fd9adebab32041f755214dbc6bffa90cc0225b39da2e5c2d3b91a250565b600180546001600160a01b0319166001600160a01b039290921691909117905556fe50726f787920616c72656164792075736573207468697320696d706c656d656e746174696f6e4e6577206f776e65722063616e6e6f7420626520746865206e756c6c20616464726573734f6e6c79207468652070726f7879206f776e65722063616e2063616c6c2074686973206d6574686f64a26469706673582212201946581d2e0f3e6fdca40694e21bfdcc495072043257d132c099012b0f2062f264736f6c6343000705003350726f787920616c72656164792075736573207468697320696d706c656d656e746174696f6e4f776e61626c6544656c656761746550726f7879206661696c656420696d706c656d656e746174696f6e50726f7879207472616e736665722063616e206f6e6c792062652063616c6c6564206279207468652070726f78794f776e61626c653a206e6577206f776e657220697320746865207a65726f2061646472657373436f6e7472616374206973206e6f206c6f6e6765722070656e64696e67206f722068617320616c7265616479206265656e20617070726f7665642062792072656769737472794f776e61626c653a2063616c6c6572206973206e6f7420746865206f776e657250726f7879207472616e7366657220686173206578697374696e672070726f78792061732064657374696e6174696f6e436f6e747261637420697320616c726561647920616c6c6f77656420696e2072656769737472792c206f722070656e64696e67a26469706673582212206d7c93e46671a83e52427b2d6de2c40dcdc3e1f9777c5eea4863da2b6b7150c864736f6c63430007050033",
    "sourcePath": "/Volumes/Developer/blockchain/wyvern-v3/contracts/registry/ProxyRegistry.sol",
    "compiler": {
        "name": "solc",
        "version": "0.7.5+commit.eb77ed08"
    },
    "functionHashes": {
        "DELAY_PERIOD()": "e71a02e1",
        "contracts(address)": "69dc9ff3",
        "delegateProxyImplementation()": "97204d8e",
        "endGrantAuthentication(address)": "38b6e407",
        "owner()": "8da5cb5b",
        "pending(address)": "5eebea20",
        "proxies(address)": "c4552791",
        "registerProxy()": "ddd81f82",
        "registerProxyFor(address)": "00686741",
        "registerProxyOverride()": "631d9e3f",
        "renounceOwnership()": "715018a6",
        "revokeAuthentication(address)": "53376d1f",
        "startGrantAuthentication(address)": "d4e8e063",
        "transferAccessTo(address,address)": "dcfa9222",
        "transferOwnership(address)": "f2fde38b"
    },
    "gasEstimates": {
        "creation": {
            "codeDepositCost": "1186200",
            "executionCost": "43675",
            "totalCost": "1229875"
        },
        "external": {
            "DELAY_PERIOD()": "1064",
            "contracts(address)": "1203",
            "delegateProxyImplementation()": "1082",
            "endGrantAuthentication(address)": "infinite",
            "owner()": "1060",
            "pending(address)": "1147",
            "proxies(address)": "1230",
            "registerProxy()": "infinite",
            "registerProxyFor(address)": "infinite",
            "registerProxyOverride()": "infinite",
            "renounceOwnership()": "infinite",
            "revokeAuthentication(address)": "infinite",
            "startGrantAuthentication(address)": "infinite",
            "transferAccessTo(address,address)": "infinite",
            "transferOwnership(address)": "infinite"
        }
    }
}